:107800000C942A3C0C94473C0C94473C0C94473C09
:107810000C94473C0C94473C0C94473C0C94473CDC
:107820000C94473C0C94473C0C94473C0C94473CCC
:107830000C94473C0C94473C0C94473C0C94473CBC
:107840000C94473C0C94473C0C94473C0C94473CAC
:107850000C94473C11241FBECFE5D8E0DEBFCDBF5E
:1078600010E0A0E6B0E0E8E4FDE702C005900D926C
:10787000A036B107D9F721E0A0E6B0E001C01D9223
:10788000A836B207E1F70E94993C0C94A23E0C94F2
:10789000003C5D9BFECF8CB90895CF92DF92EF92B2
:1078A000FF92C12CD12C760112C08FEFC81AD80AD2
:1078B000E80AF80A81E0C81682E1D8068AE7E806F5
:1078C000F10428F0E0916000F091610009955F9B60
:1078D000ECCF8CB1FF90EF90DF90CF900895CF93D5
:1078E000DF93D82F882331F0C0E00E944D3CCF5F5A
:1078F000CD13FBCFDF91CF910895CF93C82F0E9476
:107900004D3C803249F484E10E94493C8C2F0E9416
:10791000493C80E10E94493CCF9108950E944D3C32
:10792000803231F484E10E94493C80E10E94493C6C
:107930000895000010BC83E389B988E18AB986E81C
:1079400080BDD49A1092620090E18BB389278BBBE3
:107950002FEF31EE84E0215030408040E1F700C04D
:107960000000809162008F5F80936200803168F335
:107970000F2EF5E6CF2EF1E0DF2EF02D0F2EF4E6E0
:10798000EF2EF1E0FF2EF02D512C412C0F2EF3E6BF
:107990008F2EF0E09F2EF02D0F2EF6E6AF2EF1E0A9
:1079A000BF2EF02D0F2EF7E66F2EF1E07F2EF02D7B
:1079B0000E944D3C803319F40E948E3CF9CF8133F4
:1079C00001F50E944D3C803299F784E10E94493CC8
:1079D00081E40E94493C86E50E94493C82E50E9480
:1079E000493C80E20E94493C89E40E94493C83E58D
:1079F0000E94493C80E50E94493C80E10E94493C4C
:107A0000D7CF803449F40E944D3C863810F00E9454
:107A10004D3C0E948E3CCCCF8134C1F40E944D3C41
:107A2000803821F482E00E947D3CC2CF813821F46D
:107A300081E00E947D3CBCCF823821F482E10E942B
:107A40007D3CB6CF80E00E947D3CB2CF823431F4E1
:107A500084E10E946F3C0E948E3CAACF853431F4B1
:107A600085E00E946F3C0E948E3CA2CF803519F4C5
:107A70000E948E3C9DCF813519F40E948E3C98CF98
:107A8000823519F40E948E3C93CF853559F40E94BB
:107A90004D3CF50180830E944D3CF30180830E94A0
:107AA0008E3C86CF863539F484E00E946F3C80E0BE
:107AB0000E947D3C7DCF843609F0A8C00E944D3CD9
:107AC000F60180830E944D3CF70180838091630121
:107AD0008E7F809363010E944D3C853429F4809110
:107AE00063018160809363018091640190916501DD
:107AF000892B91F08401252C342C0E944D3CF801F7
:107B000081938F01FFEF2F1A3F0A809164019091BA
:107B100065012816390688F30E944D3C803209F031
:107B200047CF8091630180FF27C0809164019091CD
:107B30006501892B09F463C08401252C342CF801DC
:107B400061918F0180916601909167010E94953E3D
:107B500080916601909167010196909367018093EF
:107B60006601FFEF2F1A3F0A809164019091650131
:107B70002816390620F343C0F894E199FECF112767
:107B8000E0916601F0916701EE0FFF1FC3E6D0E0C0
:107B9000809164019091650180FF01C001961030D1
:107BA00051F422D003E000935700E8951DD001E185
:107BB00000935700E8950990199016D001E00093C2
:107BC0005700E8951395103458F011270DD005E0B3
:107BD00000935700E89508D001E100935700E8951D
:107BE0003296029739F0DBCF0091570001700130D7
:107BF000D9F30895103011F00296E7CF112484E1F3
:107C00000E94493C80E10E94493CD2CE843709F071
:107C100066C00E944D3CF60180830E944D3CF701F6
:107C200080830E944D3C853431F4809163018160F2
:107C3000809363010FC0809163018E7F8093630105
:107C40008091660190916701880F991F9093670159
:107C5000809366010E944D3C803209F0A9CE84E1F8
:107C60000E94493C8091640190916501892B99F1B2
:107C7000052D142D8091630180FF12C08091660153
:107C8000909167010E948D3E0E94493C809166015F
:107C9000909167010196909367018093660112C0ED
:107CA00081FD07C0E0916601F091670184910E9417
:107CB000493C80916601909167010196909367011C
:107CC000809366010F5F1F4F809164019091650161
:107CD0000817190778F280E10E94493C69CE853780
:107CE000A9F40E944D3C803209F062CE84E10E94EA
:107CF000493C8EE10E94493C85E90E94493C82E072
:107D00000E94493C80E10E94493C52CE863709F0EE
:107D10004FCE80E00E947D3C4BCEE199FECF9FBBD1
:107D20008EBBE09A99278DB30895262FE199FECF57
:107D30009FBB8EBB2DBB0FB6F894E29AE19A0FBEA3
:087D400001960895F894FFCFAD
:040000030000780081
:00000001FF
